:1000000080313828911508007E1480312100101CA1
:1000100010282000101C1028BC31382480313628CC
:100020000B1F36282100111D1F282000111D1F281D
:10003000220040088A003F080A008031362821004B
:1000400091192000911918282100921F2E282000B4
:10005000921F2E28BD312A25803136282100921C7E
:1000600036282000921C3628BC313C247E10090022
:1000700080313A289331FE238031E8003230840009
:10008000BF30850049308600013087000030FF0016
:100090001A30BD3172258031FF30840093308500E5
:1000A000C4308600013087000030FF002230BD31AF
:1000B0007225803101308400BF30850050308600C9
:1000C000023087000030FF001830BD3172258031CA
:1000D000F0308400233085000030FE000430FF0043
:1000E000BD3166258031FD01E201E301E401E50156
:1000F000E601E701DE308400003085001230FE00AA
:100100000030FF00BD316625803120308400013091
:1001100085002930FE000030FF00BD3166258031AA
:10012000A0308400013085002430FE000030FF0044
:10013000BD316625803120308400023085003030AA
:10014000FE000030FF00BD3166257E1020008D319D
:10015000002D00348034E034F034F834FC34FE34C4
:10016000FE34FE34FF347F343F343F343F347F3439
:10017000FF34FE34FE34FE34FC34F834F034E03422
:1001800080340034F834FF34FF34FF34FF34FF345C
:10019000FF34FF34073400340034003400340034BA
:1001A000003400340734FF34FF34FF34FF34FF34AD
:1001B000FF34FF34F8341F34FF34FF34FF34FF348E
:1001C000FF34FF34FF34E0340034003400340034B2
:1001D000003400340034E034FF34FF34FF34FF34A3
:1001E000FF34FF34FF341F340034013407340F343C
:1001F0001F343F347F347F347F34FF34FE34FC348B
:10020000FC34FC34FE34FF347F347F347F343F349D
:100210001F340F3407340134003400340034803488
:100220008034C034E034E034F034F834FC34FC344E
:10023000FE34FF34FF34FF34FF34FF34FF34FF3427
:10024000FF3400340034003400340034003400340F
:100250000034033407340F341F340F3407340334AD
:1002600003340134FF34FF34FF34FF34FF34FF34F0
:10027000FF34FF34003400340034003400340034E0
:1002800000340034003400340034003400340034CE
:10029000003400340034FF34FF34FF34FF34FF34C3
:1002A000FF34FF34FF3400340034003400340034B1
:1002B000003400340034003400340034003400349E
:1002C0000034003400340034FF34FF34FF34FF3492
:1002D000FF34FF34FF34FF34003400340034003482
:1002E000003400340034C034F034F834FC34FC34CE
:1002F000FE34FE34FE347F343F343F343F343F34E9
:100300007F34FF34FE34FE34FE34FC34FC34F834E5
:10031000E0348034003403340334033403340334CE
:100320000734073407340034003400340034803498
:100330008034E034F034FF34FF34FF34FF34FF34D2
:10034000FF347F341F3400340034003400348034F0
:100350008034C034E034F034F834FC34FE34FF34FC
:10036000FF34FF347F343F341F340F3407340334F9
:10037000013400340034003400340034FE34FF34DF
:10038000FF34FF34FF34FF34FF34FF34FF34FF34D5
:10039000FF34FD34FC34FC34FC34FC34FC34FC34D9
:1003A000FC34FC34FC34FC34FC340034C034F03411
:1003B000F834FC34FC34FE34FE34FE347F343F34F5
:1003C0003F343F343F347F34FF34FF34FE34FE3457
:1003D000FC34FC34F834F034C034003400340034DD
:1003E000003401340134013401340134E034E034A8
:1003F000E034E034E034E034F034F834FF34FF34F7
:10040000FF347F343F343F341F340734003400342A
:100410008034803480348034C034C0348034033439
:1004200003340334033403340334073407340F3400
:10043000FF34FF34FF34FF34FE34FE34FC34F03438
:10044000013407340F341F343F347F347F347F341A
:10045000FE34FE34FC34FC34FC34FC34FC34FE3416
:10046000FF347F347F347F343F341F340F340734FC
:1004700001340034003400340034003400340034DB
:1004800000348034E034F034FC34FE34FF34FF3484
:10049000FF34FF34FF34FF34FF34FF34FF34FF34C4
:1004A00000340034003400340034C034E034F83414
:1004B000FC34FF34FF34FF347F341F340F340334F3
:1004C0000034FF34FF34FF34FF34FF34FF34FF3493
:1004D000FF3400340034F834FE34FF34FF34FF348A
:1004E000FF34FF34FF34F334F034F034F034F034BC
:1004F000F034F034FF34FF34FF34FF34FF34FF3482
:10050000FF34FF34F034F034033403340334033461
:100510000334033403340334033403340334033423
:10052000033403340334FF34FF34FF34FF34FF3427
:10053000FF34FF34FF340334033400340034003418
:10054000FF34FF34FF34FF34FF34FF34FF343F34D3
:100550003F343F343F343F343F343F343F343F3403
:100560003F343F343F343F340034003400340034EF
:100570000034FF34FF34FF34FF34FF34FF34FF34E2
:10058000F034F034F034F034F034F034F034E0345B
:10059000E034E034C034C0348034003400340034FB
:1005A00000340034833483348334C13481340134DF
:1005B00001340134013401340134033403340F3481
:1005C000FF34FF34FF34FF34FF34FF34FF34FC3496
:1005D000013407340F341F343F343F347F347F34C9
:1005E000FE34FE34FC34FC34FC34FC34FC34FE3485
:1005F0007F347F347F343F343F341F340F3407342B
:1006000001340034003400340034003400348034C9
:10061000E034F034FC34FE34FF34FF34FF34FF3474
:100620007F341F340F340334013400340034003479
:100630000034003400348034E034F834FC34FF34C7
:10064000FF34FF34FF34FF34FF34FF34FF34FB3416
:10065000F834F834F834F834F034F034E034E0347A
:10066000C03400340034FE34FF34FF34FF34FF3430
:10067000FF34FF34FF348734013400340034003455
:100680000034003401348734FF34FF34FF34FF3446
:10069000FF34FF34FF34FC34003403340F341F3490
:1006A0003F343F347F347F347F34FE34FC34FC34B9
:1006B000FC34FC34FC34FE347F347F347F343F34EC
:1006C0003F341F340F340734003400343F343F3498
:1006D0003F343F343F343F343F343F343F343F3482
:1006E0003F343F343F343F34BF34FF34FF34FF34B2
:1006F000FF34FF34FF34FF347F34003400340034DF
:100700000034003400340034003400340034003449
:1007100000348034E034F834FE34FF34FF34FF34E6
:10072000FF34FF343F3407340134003400340034E4
:100730000034003400340034003400348034E034B9
:10074000F834FE34FF34FF34FF34FF34FF343F34D9
:100750000F340334003400340034003400340034E7
:100760000034003400348034E034F834FE34FF3494
:10077000FF34FF34FF34FF347F341F34033400343C
:1007800000340034003400340034003400340034C9
:1007900000340034C034F034F834FC34FC34FE341B
:1007A000FE34FF347F343F341F341F341F343F3452
:1007B0007F34FF34FE34FE34FC34FC34F834F0343F
:1007C000C0340034003407341F343F347F347F3466
:1007D000FF34FF34FF34F834F034E034E034E034F4
:1007E000F034F834FF34FF34FF347F347F343F3447
:1007F0001F3407340034F034FC34FE34FE34FF344C
:10080000FF34FF34FF340F3407340334033403342C
:100810000334033407340F34FF34FF34FF34FF3420
:10082000FE34FE34FC34F03403340F341F343F34D0
:100830003F347F347F347F34FE34FC34F834F83472
:10084000F834F834F834FC34FE347F347F347F34A9
:100850003F341F341F3407340334C034F034F834C9
:10086000FC34FC34FE34FE34FE347F347F343F34B9
:100870003F343F343F347F347F34FE34FE34FE3423
:10088000FC34FC34F834F034C0340034FF34FF342A
:10089000FF34FF34FF34FF34FF34E13480348034DC
:1008A000003400340034003480348034E134FF34C8
:1008B000FF34FF34FF34FF34FF34FF347F3400341F
:1008C0000334033407340F340F341F341F341F3400
:1008D0001F349F34DF34FF34FF34FF34FF34FF34E0
:1008E000FF34FF347F343F341F3407340134003485
:1008F00000340034003400348034C034E034F83440
:10090000FC34FF34FF34FF34FF34FF343F341F34F2
:100910000F34033401340034003400340034003424
:1009200000340034003400340034E0340034003447
:100930000034003400340034003400340034003417
:1009400000340034803478346734F334F734783446
:100950008034003400340034003400340034003477
:100960000034F2346734EE34C334EE34DE34CF3442
:10097000E734CE34F0340034003400340034003432
:100980000034EC34E834D834DD34B834BD348D343C
:1009900048344F343C34EC34803400340034003478
:1009A0000034FF34FF34FF34FF34FF34FF34FF34AE
:1009B000FF34FF34FF34FF34FF34FE34FC34FC34A6
:1009C000F8340134033407340F340F341F343F3408
:1009D0003F347F347F34FF34FF34FF34FF34FF343F
:1009E000FF34003400340034003400340034003468
:1009F0000034003400340034003400340034003457
:100A00000034003400340034003400340034003446
:100A10000034003400340034003400340034003436
:100A20000034003400340034003400340034003426
:100A30008034C0346034303418340C340434063418
:100A40000E34003400340034F8340C3486348334EB
:100A5000813480341E341E34923492349234923471
:100A60009234F834F034F034FF34F034E734E434C2
:100A7000E434C734C034C034FF34C034C034C0346C
:100A8000FF34FF34FF34FF34FF34FF34FF34FF34CE
:100A9000FF34FF34FF34FF34FF34FF34FF34FF34BE
:100AA000FF340034003400340034003400340034A7
:100AB000003400340034003400340034183400347E
:100AC0000034003400340034003400340034003486
:100AD0000034003400340034003400340034003476
:100AE00007341E343C347C34FC34FC34F834F834A1
:100AF000F834F834F834F034F034F034F034F034BE
:100B0000E0341E341E34003480348134833487341E
:100B10000F341F34FF34FF34FF34FF34FF34FF340D
:100B2000FF34C034C034C034C734C434C434C734D0
:100B300080348034FE34C134C134C334C334C73448
:100B4000C734FF34FF34FF34FF34FF34FF34FF3445
:100B5000FF34FF34FF34FF34FF34FF347F347F34FD
:100B60007F348C34183400340034003400340034C2
:100B700000340034003400340034003400340034D5
:100B800000340F340134003438347834783430345D
:100B900000340034003400340034003400340034B5
:100BA0000034E034E034FE34E634C634C634FE3477
:100BB0000034003400340034003480344034A03435
:100BC0005034FF34FF34FF34FF34FF34FF34FF343C
:100BD000FF34FE34FC34FA34F134E43401340034AC
:100BE0000134C734C734C734C734833483348334BF
:100BF0008334833403340134FD340034703470346E
:100C000070347F347F347F347F347F343F343F34DB
:100C10003F343F343F343F341F341F341F341F34BC
:100C20001F34003400340034003400340034003405
:100C30000034003400340034003400340034003414
:100C40008034003400340034003480344034A03424
:100C50005034A8345834AC341634AA344734AB3446
:100C60001534283454340A3415348A3401342A347F
:100C700001348A3400342A3401348A3404342A3466
:100C8000013400340034003480347034C034003413
:100C9000C034783480347C34F0340034C034B83418
:100CA000B6346034603468345734D334D734AC3419
:100CB000A334B83447346C348E34DF34AD345D340F
:100CC000C0341F341F341F341F341E341E343E34CE
:100CD0003E343E343F343F343E343E343D343B3486
:100CE0003B3480348034C034C034E034E034E03409
:100CF000C034C03480340034003400340034003454
:100D00000034AA345534AA345F34AA345F34AB3487
:100D10007F34AE34DF34AB347F34AE34FC34AC34A7
:100D200078348A3404342A340134AA341534AA3489
:100D30001134AA345534AA347734AA341D34AA3471
:100D40001734983460345834E0340034F034E234EA
:100D500080340A3400340234003402340034023463
:100D600000341D34F4349B345134F7348A34EC3479
:100D700087347634D7349C348734BE348C347E3414
:100D800038341634153489348E34DE34D834EE34A5
:100D9000F434F434FA34FA34FD34FE34FE34FF34DF
:100DA000FF340034003400340034003400340034A4
:100DB0000034003400340034003400340034003493
:100DC0000034A034C034C034C034C0344034A03403
:100DD0005034A8347834B834F834B034E034C03403
:100DE0008034AB340534AA341134AA344534A834E1
:100DF0001534AA344534AA341534AA344F34AA34ED
:100E0000173400340034023400340834003402341F
:100E1000003408340034023400340834003402341E
:100E200000348034C034E034E034F034F034F8344A
:100E3000F834FC34FC347E34FE34FE34FE34FF34AB
:100E4000FF34FF34FF34FF34FF34FF34FF34FF340A
:100E5000FF34FD34BC34D0348334E334A334C3349E
:100E6000A73400340034003400340034003400343B
:100E700000340034003400340034003400340034D2
:100E800000340034003400340034003400340034C2
:100E900000340034003400340034003400340034B2
:100EA0000034AB345E34AC345834B034E034C03445
:100EB0000034003400340034003400340034003492
:100EC00000340A3400348A3481348A349534CA3484
:100ED000D534CE34C634EC34E834F034F034F8345D
:100EE000F834FF34B73483340F34733477347F34B9
:100EF0007F347F34FF34FF34FF34FF34FF34FF345A
:100F0000FF34FF34FF34FF34F634F834F834FC3463
:100F1000F034FC34F234FF34FF34FF34FF34FF3458
:100F2000FF340730C4004408B400B5014C30B5317B
:100F3000C525873168302000C400E430890B9E2F1E
:100F4000C40B9E2F000018302000C4004408B400D9
:100F50004C30B331DA238731C5004508C600A430D0
:100F600046060319B62FB331812387310630C400FA
:100F70004408B4000C30C5004508B5004C30B5310C
:100F8000C52587310830C4004408B4001030C500BE
:100F90004508B5004C30B531C52587310930C4004E
:100FA0004408B4000C30C5004508B5004C30B531DC
:100FB000C52587314330C4004408B4004F30B50024
:100FC000BB30B6000730B7000030B8004C30B53148
:100FD000292587311430C4004408B400B5014C30D1
:100FE000B531C52587310730C4004408B400B501C8
:100FF000B50A4C30B531C525080021009111080013
:10100000B401B501301C08283208B4073308B53DD7
:101010000130B235B30D890B09280130B136B00C5F
:10102000890B0E2830083104031D02283508B10051
:101030003408B0000800B31B08003308803AB6003B
:1010400080303602031D2628403032020318080083
:1010500020003108803AB6003508803A3602031D78
:10106000332834083002031C3A2820003508C20017
:1010700034083E2820003108C2003008C100420870
:10108000803AB60080303602031D48280130410204
:1010900003184E282000BF01C00169282000310834
:1010A000803AB6003508803A3602031D59283408C4
:1010B0003002031C602820003508C400340864286E
:1010C00020003108C4003008C3004408C0004308B1
:1010D000BF003508803AB6003108803A3602031D59
:1010E000732830083402031C7A2820003508C80011
:1010F00034087E2820003108C8003008C70048089E
:10110000803AB60080303602031D88287F304702BF
:10111000031C90287F302000C5000030C600AB289B
:1011200020003508803AB6003108803A3602031DA7
:101130009B2830083402031CA22820003508CA006E
:101140003408A62820003108CA003008C9004A081F
:10115000C6004908C5000130B6000030B7003208AB
:101160000739890AB528B635B70D890BB328360873
:10117000BD003708BE004008CC003F08CB00460841
:10118000803AB6004C08803A3602031DC9284B0845
:101190004502031C080020003D08B6000830A700E7
:1011A0000030A8003308AA003208A900A9318F2115
:1011B00088312708B7002808B8000730B735B80DC0
:1011C000890BDE28F030B9002330BA003708390720
:1011D000BB0038083A3DBC004B083B0786004C0872
:1011E0003C3D8700360881040130CB070030CC3D00
:1011F000BF28BE31A42688310330DE00BB30DF00BB
:10120000B6312F2688310B30BF31A32788310B3000
:10121000BE311B268831003A0319742A2A30CD00CA
:101220000030CE001030CF000030D0007F30D10031
:101230000030D2003A30D3000030D4009C31EE248C
:10124000883100302000CD00CE001430CF000030B7
:10125000D0005730D1000030D2003F30D3000030F2
:10126000D4009C31EE2488312100B9013908613E57
:101270008600013087000108B3003308BA0014303B
:101280003A02031C67293A08B300B401B335B40D20
:101290003308013E2000A70000302100343D20002B
:1012A000A80021003A08FC3E2000A900FF300318E6
:1012B0000030AA0021003A08023E2000AB000030B6
:1012C00003180130AC009B317F238831892911300C
:1012D0003A02031C89293A08B300B401B335B40DAE
:1012E0003308013E2000A70000302100343D2000DB
:1012F000A8001030A9000030AA0021003A08023EE0
:101300002000AB00003003180130AC009B317F237C
:101310008831210039085F3E8600013087000108CE
:10132000B300B40133082000B000210034082000CD
:10133000B1002830B2000030B3008831002088317D
:1013400000302100B500B030B60020003008210088
:101350003507B700200031082100363DB8003A08B3
:10136000B300B401B335B40D3308F63E2000BD0020
:10137000FF302100343D2000BE0021003A08023E2B
:101380002000BF00003003180130C0001430C1003D
:101390000030C2001030C3000030C4002100380803
:1013A0002000C600210037082000C500AF312827E3
:1013B000883121003908613E860001308700013004
:1013C0008102031D002A5030B3003908613E8600B7
:1013D00001308700330881000330B3003308200058
:1013E000A900B33100238831A9312021883121009F
:1013F000B40039085F3E8600013087003408810060
:1014000039085D3E8600013087000108B3003308CB
:10141000BA003A08B300B401B335B40D3308CF3E77
:101420002000A700FF302100343D2000A80021004B
:101430003A08FC3E2000A900FF3003180030AA0043
:1014400021003A08B500B60135082000AB002100A4
:1014500036082000AC009B317F23883121003A08F8
:10146000B300B401B335B40D3308C83E2000BD004D
:10147000FF302100343D2000BE0021003A08B500B5
:10148000B60135082000BF00210036082000C0004A
:101490001430C1000030C2001030C3000030C4005E
:1014A0007830C500B030C600AF3128278831013010
:1014B0002100B30039085D3E860001308700330803
:1014C000810751300102031C6B2A39085D3E8600FA
:1014D0000130870081010130B3003308B9070230C1
:1014E00039020318EA2A3629AA31D6228831003A6D
:1014F00003197E2A0B30B231D62288313730D20020
:101500000030D3001830D4000030D5008B30D60026
:10151000BB30D700B631A22688313A30D200003035
:10152000D3002030D4000030D5008F30D600BB303F
:10153000D700B631A22688313130D2000030D30036
:101540002830D4000030D5006F30D600BB30D70033
:10155000B631A22688312E30B0000030B1001430F0
:10156000B2000030B3005130B4000030B500883113
:101570001B2088312E302000B0000030B100343004
:10158000B2000030B3005130B4000030B5008831F3
:101590001B2088312D302000A7000030A800153016
:1015A000A9000030AA003430AB000030AC009B3101
:1015B0007F23883152302000A7000030A80015306A
:1015C000A9000030AA003430AB000030AC009B31E1
:1015D0007F238831BC31B42408005C30860002309F
:1015E0008700AD308400003085000C302100A4005D
:1015F00016001A00A40BF82A6C08031D0800BE315F
:10160000A4268A310C30BF31A3278A31B431C724D4
:101610008A312B082100A40020002C082100A500FD
:101620000430A536A40C890B112B2408A60026082B
:10163000BA001A302000B6000030B700B431F824E8
:101640008A312C08B9002B08B800B5315D258A31E4
:101650003608383C2100A4002408BB00BE013E35FA
:10166000203E860002308700403FBC00413FBD0065
:101670003E35203E860002308700FD308107413133
:10168000FF30813D7F313E08403E860002308700BA
:101690000108A4002408B9003D08803AA4007F3066
:1016A0002402031D552BFC303C02031C802B21001F
:1016B0003D08803AA40080302402031D612B803055
:1016C0003C020318802B21003D082000B7002100B8
:1016D0003C082000B60021003908A400A501240818
:1016E0002000B800210025082000B900803021002A
:1016F000A60026082000BA00A43119248A31BC2B88
:1017000021003D08803AA4007F302402031D8A2B6B
:10171000F9303C020318BC2BB33100238A310F3956
:10172000F83E2100A400003003180130A5003E352A
:10173000203E8600023087002408C03F2508C13FB4
:101740000630A40024082000A900B33100238A3108
:10175000A93120218A312100A5000230A535FF3EA4
:10176000031DAE2B2535103EA6003E08403E8600E8
:10177000023087002608810021003C08FD3EA400BD
:10178000FF303D3DA5002508803AA60080302602A6
:10179000031DCC2B3A0824020318102C21003C080E
:1017A000033EA40000303D3DA5002508803A803C62
:1017B000031DDC2B24083A020318102C21003908E1
:1017C000FB3EA400FF3003180030A5002508803A36
:1017D000A60080302602031DEF2B3B0824020318CD
:1017E000102C21003908053EA400003003180130F8
:1017F000A5002508803A803C031D002C24083B02EC
:101800000318102C2100EC01EC0A3A08A40024086B
:101810002200C70021003B08A40024082200C600C3
:1018200001302100A4002408BE0710303E02031C32
:101830002F2B6C080319392C220047082100A40023
:10184000A50124082000B600210025082000B700CB
:10185000220046082100A600A70126082000B800A3
:10186000210027082000B90084302100A8002808A2
:10187000672C3A08A400A50124082000B600210026
:1018800025082000B70021003B08A600A701260874
:101890002000B800210027082000B90021006508B9
:1018A000A9006408A800A936A80CA936A80C033022
:1018B0002805AA0000302905AB007F302A078400E4
:1018C000BB302B3D85000008813EAC002C08200079
:1018D000BA00A43119248A31033021006302E930AF
:1018E00003196202031C8A2CE8302000B600033082
:1018F000B700210063082000B90021006208200021
:10190000B800B5315D258A313608303E2100A4008B
:101910002408B40064302000B6000030B700210075
:1019200063082000AA00210062082000A900E83016
:10193000A7000330A800B33155238A312808B90025
:101940002708B800B5315D258A3136082100A4008A
:101950002408B5070A302000B6000030B700210087
:1019600063082000AA00210062082000A90064305A
:10197000A7000030A800B33155238A312808B900E8
:101980002708B800B5315D258A3136082100A4004A
:101990002408B60716302000DE00BB30DF00B63169
:1019A0002F268A311E30D2000030D3000830D400F8
:1019B0000030D500AD30D6000030D700B631A226B9
:1019C0008A31BC31B4248A31033021006302E9300A
:1019D00003196202031CF62C0C30BE311B268A311F
:1019E000003A031DF62C0C30B231D6220130210012
:1019F000E4070030E53D0130E2070030E33D080038
:101A0000B23166228D310030E1000030E00000305C
:101A1000DF000030DE00DE302000A7003C30A800F0
:101A2000BC31A4248D318B170B1705302000A70083
:101A30003C30A800BC318C248D312C009913BD3171
:101A40008B258D31B2318A228D31873191278D31AD
:101A500031001B1E3A2DBC31C4248D3105302100CC
:101A6000C2000F30C100F130890B342DC10B342D71
:101A7000C20B342DBC31BC248D31BC316E248D3170
:101A8000983100208D310430A700F030A800BD311E
:101A900099258D312100C1004108EF00F8306F0514
:101AA000C100103041060319712DB33100238D316F
:101AB0000739103E2100C1004108EF00E601E701AF
:101AC000EE01B231AE228D310430A700F030A80013
:101AD00021006F08C10041082000A900B231452251
:101AE0008D31AA3184228D312100D701D8010F30E8
:101AF000C1004108DD00D10198305E072200AC0032
:101B00003A3021005F3D2200AD0000302100603DF1
:101B10002200AE0000302100613D2200AF00003005
:101B20002100CC000030CB000030CA000030C900DA
:101B30000030D0000030CF000B30CE00B830CD00E8
:101B4000E90164002200C801BE31D2268D31210096
:101B5000C1004108D60056080319B72DD61DB32D74
:101B60002200C801C80ABD31F1258D31C401200011
:101B70000C18D42D21005708031DD02D0430690204
:101B80000318C72D0130C1004108E907CD2D0430ED
:101B900069060319CD2DE901E90ABD31F1258D3121
:101BA0002100D701D70AF22D210057080319F02D83
:101BB0000130DD0210305D02031CE22D0F30C10048
:101BC0004108DD005D08031DE92DB631E2268D31A7
:101BD000F02D0C305D06031DF02DAB3182238D31CD
:101BE0002100D70120008C18192E21005808031D50
:101BF000152E04306902031C022E0130C100410879
:101C0000E907032EE90161082200AB00210060080A
:101C10002200AA0021005F082200A90021005E081E
:101C20002200A800BD31F1258D312100D801D80A4C
:101C3000962E2200280821005E02C10022002908F9
:101C400021005F3BC20022002A082100603BC30044
:101C500022002B082100613BC4004408D500430842
:101C6000D4004208D3004108D20005305D06031DB0
:101C7000642E6108031D452E6008031D452EA1300A
:101C80005E020F305F3B031C642E21005508031DCC
:101C9000522E5408031D522ED13052020730533BAE
:101CA000031C642E21005508031D642E5408031DD7
:101CB000642EA03052020F30533B0318642E0530BF
:101CC000B231D6228D318B2E093021006906031DD9
:101CD000722E02305D06031D722E0230B231D62202
:101CE0008D318B2E580803198B2E0130C10041080D
:101CF000DD0710305D020318DD015D08031D842E31
:101D0000B631E2268D318B2E0C305D06031D8B2EF5
:101D1000AB3182238D312100D80100302200AB008D
:101D20000030AA000030A9000030A800210061089E
:101D3000DC006008DB005F08DA005E08D9002200E2
:101D40002F0821005C02031DB52E22002E08210061
:101D50005B02031DB52E22002D0821005A02031D2F
:101D6000B52E22002C08210059020318C12F490862
:101D70005902C1004A085A3BC2004B085B3BC300F2
:101D80004C085C3BC400220035082100C50022003D
:101D900036082100C600C701C80144084802031DD7
:101DA000DB2E43084702031DDB2E42084602031DBB
:101DB000DB2E4108450203184D2F0A30C1004108AF
:101DC0002000A90021005108A93120218D312100D6
:101DD000C200C301C235C30D993042078400B93037
:101DE000433D8500003F2000C100013FC200B531E6
:101DF00091258D3101302100C1004108D1075C08D7
:101E0000CC005B08CB005A08CA005908C9004D2F06
:101E1000AC31B0248D31872FA031D5208D31872F63
:101E2000A131DA218D31872F96313D268D31872FD3
:101E3000A03108208D31872FA53152258D31872F74
:101E4000A231E7228D31872F9431AF248D31872F36
:101E50009831C2208D31872FA631A7268D31872F4B
:101E6000AD31AD258D31872F8831F9208D31872F08
:101E70008A31ED228D31872F9A311C228D31872FA7
:101E80009E3177268D31872F943121248D31872FF4
:101E90000F30C1004108DD00872F5D08C100C2017D
:101EA0004208003A0319552F482F4108003A0319F8
:101EB000082F013A0319282F033A0319102F013A6A
:101EC0000319142F073A0319182F013A03191C2F6D
:101ED000033A0319202F013A0319242F0F3A03194B
:101EE0000C2F013A03192C2F033A0319302F013A12
:101EF0000319342F073A0319382F013A03193C2FDD
:101F0000033A0319402F013A0319442F482F2100A7
:101F10005C085002031D962F5B084F02031D962F8D
:101F20005A084E02031D962F59084D020318A12D81
:101F30006F08AB312A238D315908C1005A08C200FD
:101F40005B08C3005C08C400B33100238D3121005D
:101F5000C500C601C701C8014508C1074608C23D02
:101F60004708C33D4808C43DB8304107CD000B3099
:101F7000423DCE000030433DCF000030443DD00014
:101F8000A12DBC31BC248D31BD3113258D3197017C
:101F90000E11BE31D2268D31003A0319DD2F0B30E0
:101FA0002100C2002630C1005D30890BD52FC10B46
:101FB000D52FC20BD52F0032E02F630000000000A8
:101FC00022000E15B2318A228D31BD318B258D3123
:101FD000BC3140248D31983021005E072200AC00D6
:101FE0003A3021005F3D2200AD0000302100603D0D
:101FF0002200AE0000302100613D2200AF00A12D83
:1020000018341834183418341934193419341A346B
:102010001A341A341A341B341B341B341C341C3449
:102020001C341C341D341D341D341D341E341E3428
:102030001E341F341F341F341F3420342034203406
:1020400020342134213421342234223422342234E5
:1020500023342334233423342434243424342434C4
:1020600025342534253425342534263426342634A5
:102070002634273427342734273427342834283487
:10208000283428342934293429342934293429346A
:102090002A342A342A342A342A342B342B342B344D
:1020A0002B342B342B342C342C342C342C342C3433
:1020B0002C342C342C342D342D342D342D342D341B
:1020C0002D342D342D342E342E342E342E342E3403
:1020D0002E342E342E342E342E342E342E342E34F0
:1020E0002F342F342F342F342F342F342F342F34D8
:1020F0002F342F342F342F342F342F342F342F34C8
:102100002F342F342F342F342F342F342F342F34B7
:102110002F342F342F342F342F342F342F342F34A7
:102120002F342E342E342E342E342E342E342E349E
:102130002E342E342E342E342E342E342D342D3491
:102140002D342D342D342D342D342D342C342C3489
:102150002C342C342C342C342C342C342B342B3481
:102160002B342B342B342B342A342A342A342A347B
:102170002A34293429342934293429342934283477
:102180002834283428342734273427342734273474
:102190002634263426342634253425342534253473
:1021A0002534243424342434243423342334233471
:1021B0002334223422342234223421342134213471
:1021C00020342034203420341F341F341F341F3473
:1021D0001E341E341E341D341D341D341D341C3475
:1021E0001C341C341C341B341B341B341A341A3476
:1021F0001A341A3419341934193418341834183478
:10220000183417341734173416341634163415347A
:10221000153415341534143414341434133413347D
:10222000133413341234123412341234113411347E
:10223000113410341034103410340F340F340F3480
:102240000F340E340E340E340D340D340D340D3481
:102250000C340C340C340C340B340B340B340B3482
:102260000A340A340A340A340A3409340934093481
:10227000093408340834083408340834073407347F
:10228000073407340634063406340634063406347C
:102290000534053405340534053404340434043479
:1022A0000434043404340334033403340334033473
:1022B000033403340334023402340234023402346B
:1022C0000234023402340134013401340134013463
:1022D0000134013401340134013401340134013456
:1022E000003400340034003400340034003400344E
:1022F000003400340034003400340034003400343E
:10230000003400340034003400340034003400342D
:10231000003400340034003400340034003400341D
:102320000034013401340134013401340134013406
:1023300001340134013401340134013402340234F3
:1023400002340234023402340234023403340334DB
:1023500003340334033403340334033404340434C3
:1023600004340434043404340534053405340534A9
:10237000053406340634063406340634063407348D
:102380000734073407340834083408340834083470
:1023900009340934093409340A340A340A340A3451
:1023A0000A340B340B340B340B340C340C340C3433
:1023B0000C340D340D340D340D340E340E340E3413
:1023C0000F340F340F340F341034103410341034F1
:1023D00011341134113412341234123412341334CF
:1023E00013341334133414341434143415341534AE
:1023F000153415341634163416341734173417348C
:1024000000340034003400340034003400345F34CD
:1024100000340034003407340034073400341434FA
:102420007F3414347F34143424342A347F342A34EF
:102430001234233413340834643462343634493467
:10244000553422345034003405340334003400341D
:1024500000341C34223441340034003441342234FA
:102460001C34003408342A341C342A340834083428
:1024700008343E34083408340034503430340034E6
:102480000034083408340834083408340034603424
:1024900060340034003420341034083404340234FE
:1024A0003E345134493445343E34003442347F3470
:1024B0004034003442346134513449344634213498
:1024C000413445344B3431341834143412347F34AD
:1024D0001034273445344534453439343C344A3497
:1024E0004934493430340134713409340534033407
:1024F000363449344934493436340634493449345D
:1025000029341E3400343634363400340034003478
:102510005634363400340034003408341434223451
:102520004134143414341434143414344134223403
:10253000143408340034023401345134093406347C
:1025400032344934793441343E347E3411341134D8
:1025500011347E347F3449344934493436343E347E
:1025600041344134413422347F34413441342234C3
:102570001C347F3449344934493441347F3409347C
:102580000934013401343E3441344134513432345D
:102590007F340834083408347F34003441347F34C5
:1025A000413400342034403441343F3401347F34EA
:1025B00008341434223441347F34403440344034BD
:1025C00040347F340234043402347F347F340434A2
:1025D000083410347F343E344134413441343E3485
:1025E0007F3409340934093406343E3441345134DB
:1025F00021345E347F340934193429344634463466
:102600004934493449343134013401347F3401349C
:1026100001343F344034403440343F341F3420349C
:10262000403420341F347F342034183420347F3435
:102630006334143408341434633403340434783485
:102640000434033461345134493445344334003460
:1026500000347F34413441340234043408341034BB
:102660002034413441347F340034003404340234A3
:102670000134023404344034403440344034403473
:1026800000340134023404340034203454345434DB
:10269000543478347F34483444344434383438340F
:1026A0004434443444342034383444344434483496
:1026B0007F343834543454345434183408347E3429
:1026C00009340134023408341434543454343C345E
:1026D0007F340834043404347834003444347D3492
:1026E000403400342034403444343D340034003429
:1026F0007F34103428344434003441347F3440343F
:1027000000347C3404341834043478347C34083491
:10271000043404347834383444344434443438345D
:102720007C34143414341434083408341434143419
:1027300018347C347C340834043404340834483489
:10274000543454345434203404343F344434403406
:1027500020343C344034403420347C341C34203425
:10276000403420341C343C344034303440343C3425
:10277000443428341034283444340C345034503425
:1027800050343C344434643454344C344434003491
:102790000834363441340034003400347F3400349B
:1027A00000340034413436340834003408340834FA
:1027B0002A341C34083408341C342A3408340834CD
:1027C00030343C347F343C34303440344C347E3408
:1027D0004434403440345C346E34483440344434FF
:1027E00058347834543440344834283430347834CD
:1027F00034340E341E343C341E340E34AA34E634E1
:10280000B9348434B934C534B834DB34B8346F34B3
:10281000B934AD34B9343034B9345A34B934F1340C
:10282000B8344534B9341B34B9340634B93420349F
:10283000303430342E3430344D3448347A3400342B
:102840000034BE31A4269431EE30DE00BA30DF0011
:10285000B6312F2694313430D2000030D300083006
:10286000D4000030D5007530D600BB30D700B6316B
:10287000A2269431C430860001308700A430840041
:10288000003085000C30E00016001A00E00B442CEC
:102890005030860002308700B03084000030850060
:1028A0000C30E00016001A00E00B522CA430E000BF
:1028B00060082100BC00660A7F3003196706031D0B
:1028C0007E2C78302000B6000030B7000030B80011
:1028D000B9000830BA000030BB000830BC0000303E
:1028E000BD004730BE00BB30BF00AC313624943150
:1028F000B0302000E00060082100BC001030200053
:10290000E00060082100BD0000302000D200D300AC
:1029100021003D082000E000E1016008D4006108CA
:10292000D50021003C0886008701403F2000D600EA
:10293000413FD700B631A22694310230E000600852
:102940002100BC0708302000E00060082100BD071E
:1029500040303D02031C842CBC31B42408000D30EF
:102960002000B6000030B700B431C72494312B35B5
:10297000B8002C0DB900B5315D2594313708210020
:10298000B200200036082100B100DC3086000130A2
:102990008700A7308400003085000A30A4001600AC
:1029A0001A00A40BCF2CB431F82494312B08210049
:1029B000A40020002C082100A5000530A536A40C99
:1029C000890BDE2C2408B1072508B23D3108743E7E
:1029D000B4000330323DB50003303502E83003194E
:1029E0003402031CF72C3130A4002408A700643003
:1029F0002000B6000030B700210035082000AA00F2
:102A0000210034082000A900E830A7000330A80006
:102A1000B331552394312808B9002708B800B531DF
:102A20005D25943136082100A4002408A8070A3047
:102A30002000B6000030B700210035082000AA00B1
:102A4000210034082000A9006430A7000030A8004D
:102A5000B331552394312808B9002708B800B5319F
:102A60005D25943136082100A4002408A9070A3006
:102A70002000A7000030A800210035082000AA008F
:102A8000210034082000A900B331552394312708D0
:102A90002100A4002408AB079B303406033003193F
:102AA0003506031D602D0130A4002408ED072130F8
:102AB0006D02031C612D0730B231D6229431612D95
:102AC000ED01BE31A4269431C930DE00BA30DF00FA
:102AD000B6312F2694310730BF31A327943100300F
:102AE0002000B000B1001F30B2000030B3008030D1
:102AF000B4000030B50088311B2094310030200034
:102B0000B000B1003030B2000030B3008030B4000B
:102B10000030B50088311B2094312100B30105300D
:102B20002000A7000030A80021003308A400A50160
:102B30000530A435A50D890B992D24082000A90086
:102B4000210025082000AA00A9318F2194312708EF
:102B50002100A6002608B6003608A400A501240816
:102B60002000B000210025082000B1002030B20074
:102B70000030B300B531FA25943121003608A400A5
:102B8000A50124082000B000210025082000B10084
:102B90002F30B2000030B300B531FA259431013046
:102BA0002100A4002408B30714303302031C8F2D26
:102BB00003302000B6000030B7002100313520007E
:102BC000B8002100320D2000B900B5315D259431E7
:102BD00036082100A4002408B6003608FF3E200075
:102BE000A700FF3003180030A8002030A9000030F3
:102BF000AA003030AB000030AC009B317F23943111
:102C000021003608A400A50124082000A700210007
:102C100025082000A8002030A9000030AA0030308C
:102C2000AB000030AC009B317F239431210036088B
:102C3000013E2000A700003003180130A80020301A
:102C4000A9000030AA003030AB000030AC009B314E
:102C50007F23943124302000D2000030D30038305C
:102C6000D4000030D500A730D6000030D700B631F0
:102C7000A2269431BC31B424080021006508A500C7
:102C80006408A400E40A0319E50A2408031D0800E7
:102C9000BE31A42696316930DE00BB30DF00B6318C
:102CA0002F2696310330BF31A32796312100AC0186
:102CB000AD01AE01AF01B2013D30BD31A725963166
:102CC000A031002096313D30BF31C2279631270810
:102CD0002100AC07200028082100AD3D3F30BF3166
:102CE000C227963127082100AE07200028082100BE
:102CF000AF3D0130A4002408B20740303202031C6B
:102D00005C2E0630AD36AC0C890B822E0630AF3609
:102D1000AE0C890B872E00302000B6000030B500C5
:102D20000330B400E830B30021002E082000A700D3
:102D300021002F082000A800A901AA01FF30AE0041
:102D4000FF30AD00FD30AC009B30AB00B431362419
:102D500096312A08BA002908B9002808B8002708BF
:102D6000B700AD312C259631D13033072100A800B2
:102D700001302000343D2100A90000302000353D05
:102D80002100AA0000302000363D2100AB000030B9
:102D90002000B6000030B5000030B4008030B30031
:102DA00021002C08A4002D08A500A601A7012808D1
:102DB000A4022908A53B2A08A63B2B08A73B270805
:102DC0002000AA00210026082000A90021002508D3
:102DD0002000A800210024082000A7000030AE0039
:102DE0000030AD000030AC00B830AB00B431362458
:102DF00096312A08BA002908B9002808B80027081F
:102E0000B700AD312C25963133082B3E2100B3009D
:102E1000FD302000343D2100B4003408803AA40085
:102E200080302402031D162F323033020318262F60
:102E300001302100A4002408ED0721306D02031C9D
:102E4000282F0330B231D6229631282F2100ED01F0
:102E50000330BE311B269631003A0319CE2F0A30BB
:102E6000A7000030A800210034082000AA0021009B
:102E700033082000A900A9318F2196312808B1001C
:102E80002708B0006430B2000030B3008831002061
:102E90009631A9302100A4008030A5002000300820
:102EA00021002407B000200031082100253DB10099
:102EB00020302000B6000030B7001830B8000030D5
:102EC000B9001930BA000030BB002030BC0000301F
:102ED000BD00210031082000BF0021003008200083
:102EE000BE00AC3136249631210034082000AA00FF
:102EF000210033082000A9000A30A7000030A800F4
:102F0000B731262796312808B1002708B000643071
:102F1000B2000030B300883100209631A930210082
:102F2000A4008030A5002000300821002407B00054
:102F3000200031082100253DB10040302000B600BE
:102F40000030B7001830B8000030B9001930BA00AE
:102F50000030BB002030BC000030BD002100310833
:102F60002000BF00210030082000BE00AC31362414
:102F7000963160302000B6000030B7001830B8003D
:102F80000030B9001030BA000030BB001030BC0077
:102F90000030BD005C30BE00B830F92F2030B600E4
:102FA0000030B7001830B8000030B9001930BA004E
:102FB0000030BB002030BC000030BD009830BE00A7
:102FC000B130BF00AC313624963140302000B6001D
:102FD0000030B7001830B8000030B9001930BA001E
:102FE0000030BB002030BC000030BD009830BE0077
:102FF000B130BF00AC3136249631BC31B424080066
:1030000097163D30BF31C2272708AB002B08E800D8
:103010000800A7282C00991701302000E20000309A
:10302000E3000230F00070082100E80008000030E2
:1030300020006302503003196202031C2A282C006E
:1030400099132100E801E80A01302000E200003075
:10305000E300080001302000E2070030E33D0800F3
:10306000003020006302283003196202031C2A2862
:103070002C0099170430F00070082100E80001309E
:103080002000E2000030E300FD01080000302000D5
:103090006302053003196202031C2A282C009913CD
:1030A00020307D06031D5C282200C1012100E801BB
:1030B0002000E201E30108000330F0007008210065
:1030C000E80001302000E2000030E30008002200A8
:1030D0002008F0002108F1002208F2002308F30084
:1030E0007D0A7628F336F20CF10CF00C890B72286D
:1030F000701C7C2801307D280030F4007408F50035
:10310000750803198B280030200063020F30031963
:103110006202031896287508031D2A280030200033
:103120006302053003196202031C2A282C00991738
:103130000130F0007008FD0701302000E20000308F
:10314000E3000430F00070082100E80008002100CE
:103150006808F000F1017108003A0319B028C1288D
:103160007008003A03190A28013A03193028033A73
:1031700003191728013A03196728073A0319462843
:10318000C1280800BE31A4269831F930DE00BA30DB
:10319000DF00B6312F2698310130BF31A327983197
:1031A00000302000B600B7000830B8000030B90089
:1031B0008030BA000030BB000830BC000030BD00D9
:1031C000A030BE00B030BF00AC3136249831723030
:1031D0002000B6000030B700B431C72498312C0865
:1031E000B9002B08B800B5315D25983136082100AB
:1031F000A4002408B60008303602031819297230DA
:103200002000B6000030B700B431F82498312C0803
:10321000B9002B08B800B5315D2598313608013E5C
:103220002100A4003608493E8600013087002408AA
:103230008100B001B00AB90139082F3E8400BB30CB
:103240000318013E85000008A4003908493E8600A5
:10325000013087000108240603193029B0013829FC
:103260000130A4002408B90708303902031C1C29C6
:10327000300803193F290130B231D622983121009C
:10328000BA013A083606031D52293A08493E86001B
:10329000013087000108A400A5012408B400250816
:1032A000B50068293A08493E86000130870007309A
:1032B0006405A40000306505A500273024078400BC
:1032C000BB30253D850000080107B400B501B50DF0
:1032D0000730A4002408B3003508803AA4008030E9
:1032E0002402031D752901303402031C0C2A3030DE
:1032F0002100A4002408B1003030A4002408B2004A
:103300003508803AA40080302402031D8929023048
:103310003402031C912933302100B200A400240898
:10332000B1002100B701B80121003308A400A501B4
:103330000730A435A50D890B99293A08A600A701E5
:10334000A60EA70EF030A70526080F39A704F03007
:10335000A605F030A8002330A90026082807AA00F7
:103360002708293DAB0024082A07AC0025082B3D7F
:10337000AD0037082C07AE0038082D3DAF002E08F1
:1033800086002F088700310881003308A400A501BA
:103390000730A435A50D890BC9293A08A600A70155
:1033A000A60EA70EF030A70526080F39A704F030A7
:1033B000A605F830A8002330A90026082807AA008F
:1033C0002708293DAB0024082A07AC0025082B3D1F
:1033D000AD0037082C07AE0038082D3DAF002E0891
:1033E00086002F088700320881000130B7070030BF
:1033F000B83D3808803AA40080302402031D022A18
:1034000007303702031C9429FE302100B407FF3037
:10341000B53D0130B3026C2901302100A40024081D
:10342000BA0708303A02031C41290130E407003092
:10343000E53DBC31B42408000D302100A900BB30AB
:10344000AA00BE31A4269A31BA30DE00BA30DF00BD
:10345000B6312F269A310D30BF31A3279A31003073
:103460002000B600B7000830B8000030B9002100D5
:103470006F08A400A50124082907A60025082A3DF5
:10348000A700F03026078400FF30273D85000008A4
:10349000A80028082000BA00A43119249A3121007C
:1034A000B5016E08A400350A562AA436890B552AA0
:1034B000241CA42A3508A400A50124082000B0007B
:1034C000210025082000B1006030B2000030B300B8
:1034D000883100209A3191302100A6008430A70065
:1034E0002000300821002607AD002000310821000F
:1034F000273DAE003508A400A501A40EA50EF030AE
:10350000A50524080F39A504F030A40524082000DF
:10351000B600210025082000B7001030B8000030A8
:10352000B9001030BA000030BB003030BC000030B1
:10353000BD0021002E082000BF0021002D08200022
:10354000BE00AC3136249A3101302100A400240899
:10355000B50708303502031C512ABF31E1279A31E3
:103560002A082100B200200029082100B100200013
:1035700028082100B000200027082100AF003208F1
:10358000310430042F040319252B04302F06031DAA
:10359000252B3108A4002408B30010303302031C8B
:1035A000252B183033020318252B3308F03EA400D6
:1035B0002408B4006E08A400340ADF2AA436890B5C
:1035C000DE2A2418F12A0130A400340AE82AA4359E
:1035D000890BE72A2408A5002508EE04B231AE22A3
:1035E0009A3121003408A400A501A40EA50EF030E4
:1035F000A50524080F39A504F030A40524082000EF
:10360000C800210025082000C9001030CA00003081
:10361000CB001030CC000030CD003030CE00003078
:10362000CF00B3312A239A3121006E0A031D1A2BD1
:1036300001301B2B0030A4002408AB002B08031919
:10364000252B0D30B231D6229A310D30BE311B26DA
:103650009A31003A03197C2B01302100E407003035
:10366000E53D6408A4000230A436890B342B2408FD
:103670000339A5002508AC0003302C0203187C2B6D
:103680002C08A400A50124082000B0002100250872
:103690002000B1001430B2000030B30088310020A7
:1036A0009A3100302100A600B830A7002000300871
:1036B00021002607AD00200031082100273DAE0083
:1036C0002D302000B6000030B7001030B8000030B8
:1036D000B9000A30BA000030BB001030BC00003026
:1036E000BD0021002E082000BF0021002D08200071
:1036F000BE00AC3136249A31BC31B4240800A81B7A
:1037000008002808803AAD0080302D02031D8A2B66
:10371000803027020318080020002A08803AAD00F4
:103720002C08803A2D02031D972B2B082902031C1D
:103730009E2B20002C08B9002B08A22B20002A0861
:10374000B9002908B8003908803AAD0080302D0250
:10375000031DAC2B013038020318B22B2000B60138
:10376000B701CD2B20002A08803AAD002C08803A02
:103770002D02031DBD2B2B082902031CC42B200086
:103780002C08BB002B08C82B20002A08BB002908E6
:10379000BA003B08B7003A08B6003608AD002D085D
:1037A000C7002C08803AAD002A08803A2D02031D7C
:1037B000DB2B29082B02031CE22B20002C08BF0066
:1037C0002B08E62B20002A08BF002908BE003F086E
:1037D000803AAD0080302D02031DF02B3F303E02B9
:1037E000031CF82B3F302000BC000030BD00132C20
:1037F00020002C08803AAD002A08803A2D02031DD3
:10380000032C29082B02031C0A2C20002C08C100C1
:103810002B080E2C20002A08C1002908C0004108EE
:10382000BD004008BC003C08AD002D08C50047089D
:103830004502C200C301031CC30347080739083C03
:10384000AD002D08C600460803197F2C460AAD00BE
:10385000FF30AE000030AF00302C2F0DAF0CAE0C9F
:10386000AD0B2D2C20002E08FF3AB0003008C4000C
:103870004308803AAD0080302D02031D412C4608DC
:1038800042020318582C20004608AD004208AD0241
:10389000AD0AFF30AE000030AF00512C2F0DAF0C41
:1038A000AE0CAD0B4E2C20002E08B0003008C40525
:1038B00020004408AD004708AE000330AE36890B47
:1038C0005E2C2E08AF00B0010730AF35B00D890B6C
:1038D000652CF030B1002330B2002F083107B3005F
:1038E0003008323DB4002708330786002808343DED
:1038F00087002D0881044608AD002D08C70747083A
:10390000073EAD00003003180130AE002E08803AAB
:10391000AF0080302F02031D8F2C45082D020318A5
:10392000B82C20004708AD000330AD36890B952C2C
:103930002D08AE00AF010730AE35AF0D890B9C2CC2
:10394000F030B0002330B1002E083007B2002F084D
:10395000313DB30027083207B4002808333DB500D5
:103960003408860035088700FF30810008307C2C41
:10397000200045084702031808000130AD00450843
:103980000739890AC42CAD35890BC32C2D08FF3E9D
:10399000AE002E08C4004408AD004708AE00033056
:1039A000AE36890BD02C2E08AF00B0010730AF35F2
:1039B000B00D890BD72CF030B1002330B2002F08A6
:1039C0003107B3003008323DB400270833078600C2
:1039D0002808343D87002D0881040800540850064B
:1039E000031DF42C53084F06031D052D4E08B1008E
:1039F0004D08B0005008B3004F08B2005208B5009F
:103A00005108B40088311B20080052084E06031DDF
:103A10000B2D51084D06031D1C2D4E08A8004D0806
:103A2000A7005008AA004F08A9005408AC0053088A
:103A3000AB009B317F2308004D085102A7004E08C0
:103A4000523BA800BE31E9269C3120002808210005
:103A5000AC00200027082100AB0020004E08803A6F
:103A6000D5005208803A5502031D382D51084D02E9
:103A7000031C3F2DFF302100A100FF30432D0130FA
:103A80002100A1000030A20020004F085302A7002F
:103A90005008543BA800BE31E9269C31200028087C
:103AA0002100AE00200027082100AD0020005008B2
:103AB000803AD5005408803A5502031D612D530801
:103AC0004F02031C682DFF302100A300FF306C2D36
:103AD00001302100A3000030A4002E08803A20000D
:103AE000D50021002C08803A20005502031D7B2DB3
:103AF00021002B082D02031C902D21002D092000F0
:103B0000D50021002E092000D600D50A0319D60AB7
:103B100055082100A500200056082100A600952D7B
:103B200021002C08A6002B08A50002302000A700C9
:103B30000030A800210026082000AA002100250846
:103B40002000A900A9318F219C3128082100A8005C
:103B5000200027082100A70020004E082100B00007
:103B600020004D082100AF00200050082100B200C5
:103B700020004F082100B1002100B01FB21B1D2EF4
:103B80003008803A2000D50080305502031DCB2D2F
:103B9000803021002F0203181D2E21003208803AA8
:103BA0002000D50080305502031DD92D4030210062
:103BB000310203181D2E2100310807392000D500DD
:103BC00055082100A00001302000D5002100200A66
:103BD0002000EB2DD535890BEA2D5508D60008308D
:103BE000A7000030A800210032082000AA00210010
:103BF00031082000A900A9318F219C312708D70066
:103C00002808D8000730D735D80D890B032EF0309F
:103C1000D9002330DA0057085907DB0058085A3D0D
:103C2000DC0021002F0820005B07860021003008FF
:103C300020005C3D870056088104200052082100C6
:103C40003006031D272E2000510821002F06031DDA
:103C5000352E2000540821003206031D332E20008B
:103C6000530821003106031908002808AA00270874
:103C7000A9002B092000D50021002C092000D60026
:103C8000D50A0319D60A5608803AD70021002A0817
:103C9000803A20005702031D512E210029082000E0
:103CA000550203185C2E21002D08A7022E08A83B00
:103CB0002108AF072208B03D21002A08803A2000E1
:103CC000D50021002E08803A20005502031D6B2EDE
:103CD00021002D0829020318BC2D21002B08A7075D
:103CE0002C08A83D2308B1072408B23DBC2D123092
:103CF0002000B6000030B700B431C7249E312C0834
:103D0000B9002B08B800B5315D259E313608D200C8
:103D10005208D5001230B6000030B700B431F82494
:103D20009E312C08B9002B08B800B5315D259E31B5
:103D30003608383CD2005208D60022005B0820002A
:103D4000E60722005C082000E73D22005908200019
:103D5000E40722005A082000E53D64086504031DBD
:103D6000B62E01302200D9000030DA003F302000AA
:103D700064066504031DC12EFF302200D900FF3008
:103D8000DA000530200066066704031DF12E650881
:103D9000803AD20080305202031DD02E55086402B2
:103DA000031CF12E20005508083ED20000300318F5
:103DB0000130D3006508803AD4005308803A540299
:103DC000031DE42E520864020318F12E0130220074
:103DD000DB000030DC0001302000D200520822005D
:103DE000C5077A30200066066704031D212F650889
:103DF000803AD20080305202031D002F5608640220
:103E0000031C212F20005608083ED2000030031862
:103E10000130D3006508803AD4005308803A540238
:103E2000031D142F520864020318212FFF302200B3
:103E3000DB00FF30DC0001302000D20052082200FD
:103E4000C5072000E71F432F4030E6000030E700A1
:103E50002030E4000030E5000130D200520821009B
:103E6000EA072200C501B33100239E310139031D49
:103E70003E2FFF302200DB00FF30422F01302200B6
:103E8000DB000030DC0020006708803AD200803080
:103E90005202031D4D2F80306602031C6F2F4030ED
:103EA0002000E6000030E7002030E4000030E500AC
:103EB0000130D20052082100EB072200C501B331C6
:103EC00000239E310139031D6A2FFF302200DB00E1
:103ED000FF306E2F01302200DB000030DC000A30A2
:103EE00021006B020318782F0A306A02031C7A2F14
:103EF000EA01EB010A3022004502031C832F0E3039
:103F0000B231D6229E31BE31A4269E310E30BE3152
:103F10001B269E31003A0319A32F3C30B600003017
:103F2000B7000030B800B9000830BA000030BB005C
:103F30000830BC000030BD004730BE00BB30BF00C1
:103F4000AC3136249E3130302000B6000030B7004E
:103F50000030B800B90021006B08303E2000D200CC
:103F60005208BA00A43119249E314A30B6000030FC
:103F7000B7000030B800B90021006A08303E2000C8
:103F8000D2005208BA00A43119249E310430A7008F
:103F90000030A8005508D200D3015208A9005308E8
:103FA000AA005508083EAB00003003180130AC00F1
:103FB0009B317F239E317B302000A7000030A8007A
:103FC0005608D200D3015208A9005308AA00560887
:103FD000083EAB00003003180130AC009B317F235A
:103FE0009E3120006708B1006608B0006508B30084
:103FF0006408B200B531FA259E31BC31B424080002
:10400000E43000320032890B01280032003208000F
:10401000BE31A426A0310B30DE00BA30DF00B6314D
:104020002F26A0310430BF31A327A031BF31E127B3
:10403000A0312A082100AF00200029082100AE008D
:10404000200028082100AD00200027082100AC0036
:104050002F082E042D042C0403196328B201320802
:10406000A400A501A435A50DA435A50D2030240775
:104070008400B130253D8500003FA600013FA70028
:10408000023FA800033FA9002F082906031D52285C
:104090002E082806031D52282D082706031D522826
:1040A0002C082606031D58280430B231D622A03130
:1040B00001302100A4002408B2071E303202031C84
:1040C0002F28E401E5010430BE311B26A031003A5F
:1040D000031D9028F0302100AA002430AB00B0016D
:1040E000B101B3310023A0312100A4002A088600C9
:1040F0002B088700240881000130AA070030AB3D5F
:104100000130B0070030B13D3108803AA40083305F
:104110002402031D8D28003030020318CD28712899
:10412000210064086504031DA52800302000B000AC
:10413000B1002030B2000030B3007F30B400003056
:10414000B50088311B20A031CD2864036504031D10
:10415000BA2820302000B0000030B1002030B2007A
:104160000030B3006030B4000030B50088311B204F
:10417000A031CD2800306502043003196402031811
:10418000CD2840302000B0000030B1002030B20017
:104190000030B300B531FA25A03101302100E40729
:1041A0000030E53DBC31B4240800B431C724A0314F
:1041B0002B352100A80020002C0D2100A900B431CE
:1041C000F824A0312B082100A40020002C08210095
:1041D000A500A536A40CA536A40C2408AA00250821
:1041E000AB002A082807A4002B08293DA5002408B5
:1041F000803EAD00FF30253DAE0005302E0201307F
:1042000003192D02031C182905302E0266300319EC
:104210002D02031818290130A4002408ED072130CD
:104220006D02031C19290830B231D622A031192998
:10423000ED01BE31A426A0318D30DE00BA30DF00A2
:10424000B6312F26A0310830BF31A327A03100306E
:104250002000D200D3000830D4000030D5008330D5
:10426000D600BB30D700B631A226A0316E30D200C6
:104270000030D3000830D4000030D5008730D6009D
:10428000BB30D700B631A226A031FF302100B200EA
:10429000FF30B30021003308B0003208AF002E0811
:1042A0002000B10021002D082000B00021003008BE
:1042B0002000B30021002F082000B2008831002028
:1042C000A03131082100B000200030082100AF00EB
:1042D0000730B037AF0C890B69296408AF07650850
:1042E000B03DFF30AF050130B005300885002F0824
:1042F0008400003084079030853D0008103EA40003
:104300002408B100B31BBE2931082C06031D9E29C9
:1043100033082000B100210032082000B000210045
:104320003108A400A50124082000B20021002508BE
:104330002000B300B531FA25A031BE293308200092
:10434000A800210032082000A70021003108A400A5
:10435000A50124082000A900210025082000AA00AA
:1043600021002C08A600A70126082000AB00210090
:1043700027082000AC009B317F23A03121003108A9
:10438000A4002408AC000130B2070030B33D33086C
:10439000803AA40080302402031DD02980303202EC
:1043A000031C4A29BC31B42401302100E407003049
:1043B000E53D080080302000E00060082100A400F6
:1043C000B431C724A1312B08E0002C08E1000630ED
:1043D000E136E00C890BE82960082100A8002000E4
:1043E00061082100A900B431F824A1312B08E000B4
:1043F0002C08E1000630E136E00C890BFB2960084F
:104400002100AA00200061082100AB00F830AA07B3
:10441000FF30AB3D0130A8070030A93DBE31A426D6
:10442000A1319C30DE00BA30DF00B6312F26A13139
:104430000230BF31A327A131FF302100B300FF308C
:10444000B400210029082000B7002100280820001E
:10445000B6002100640833072000B8002100650879
:10446000343D2000B900B5315D25A1313708210068
:10447000B200200036082100B10024082000E0002E
:10448000E1016008A7006108A800210032082000AF
:10449000AA00210031082000A900B7312627A13148
:1044A00028082100B200200027082100B1000830B0
:1044B0002000A7000030A800210032082000AA0038
:1044C000210031082000A900A9318F21A13127083E
:1044D000E00060082100A600310807392000E00054
:1044E00060082100A7002608F93E8400B9300318AF
:1044F000013E850000082000E00021002708073C5D
:10450000890A2000842AE036890B832A601C8A2AC3
:1045100001308B2A0030E10061082100B00034082E
:10452000AF003308AE00AF1BC72A300825060319B9
:10453000AC2A2F082000A80021002E082000A70088
:104540001130A9000030AA003F30AB000030AC00B1
:104550009B317F23A131C72A3008031DB12A3F3088
:10456000B22A1130AC000030AD002F082000B1009D
:1045700021002E082000B00021002D082000B300EB
:1045800021002C082000B200B531FA25A13121000C
:1045900030082000E00060082100A5000130B307CA
:1045A0000030B43D3408803A2000E00080306002E2
:1045B000031DDD2A803021003302031C212ABC3177
:1045C000B42421002A08E4072B08E53D0800BE3189
:1045D000A426A231AB30DE00BA30DF00B6312F2680
:1045E000A2310630BF31A327A23128302000B60007
:1045F0000030B7001030B8000030B9003030BA00D9
:104600000030BB003030BC000030BD000030BE00C8
:10461000A830BF00AC313624A231B431C724A23156
:104620002B082100B30020002C082100B400B43670
:10463000B30C3308BD003408BE0003302000A700CF
:104640000030A80021003E0885003D0884000030AD
:1046500084079030853D0008B300B4013335200055
:10466000A9002100340D2000AA00A9318F21A23118
:1046700028082100BA00200027082100B9000330D3
:104680002000A7000030A80021003D08803EB300B4
:1046900000303E3DB400FF303305B5000130340535
:1046A000B6000030350784009030363D85000008A4
:1046B000B700B80137352000A9002100380D2000CF
:1046C000AA00A9318F21A23128082100BC002000B6
:1046D00027082100BB003730B3003B083302BB0082
:1046E0003C090318890ABC003030B9070030BA3DD4
:1046F00040302000CD000030CE002830CF00003008
:10470000D00021003A082000D20021003908200002
:10471000D10021003C082000D40021003B082000EB
:10472000D3009C31EE24A231B431F824A2312B08FD
:104730002100B30020002C082100B400B436B30CD3
:104740003308BF003408C000400885003F088400DB
:10475000003084079030853D0008283EB9000030C5
:1047600003180130BA003F08803EB3000030403DDE
:10477000B400FF303305B50001303405B600003019
:10478000350784009030363D85000008B7003F3083
:10479000B80037083802BB00BC01031CBC03403022
:1047A0002000CD000030CE002830CF000030D000F7
:1047B00021003A082000D200210039082000D10051
:1047C00021003C082000D40021003B082000D30039
:1047D0009C31EE24A231BC31B424A231013021003D
:1047E0003E02873003193D02031C172C01303E02A4
:1047F000A63003193D020318172C013040024E3039
:1048000003193F02031C172C013040025E300319CC
:104810003F020318172C0130B3003308ED07213095
:104820006D02031C08000630B231D6220800ED01EB
:1048300008002030BA02CE010530BB003B08CF0093
:10484000B71F272C3603FF3ABB003B08CE003708C2
:10485000803ABB0080303B02031D302C7B30360297
:10486000031C382C200036087F3CBB003B08CF00DF
:10487000200038080739031D972C4E08BB003B0861
:10488000D0004F085002031808003A08BB00BC01D2
:104890003B08B0003C08B1000530B2000030B30066
:1048A00088310020A4310030BD009230BE003008B5
:1048B0003D07BF0031083E3DC00050083F0784005F
:1048C00040080318400A85000008C1000830A7000E
:1048D0000030A8003908AA003808A900A9318F21A2
:1048E000A4312708C2002808C3000730C235C30D11
:1048F000890B762C5008F03EC400C5012330C53D1D
:1049000042084407C6004308453DC700360846072D
:10491000C8003708473DC900480886004908870095
:10492000410881000130BB003B08D007412C38080A
:104930000739BB003B08CD004E08BB003B08D10047
:104940004F085102031808003A08BB00BC013B089D
:10495000B0003C08B1000530B2000030B30088312F
:104960000020A4310030BD009230BE0030083D0769
:10497000BF0031083E3DC00051083F078400400899
:104980000318400A85000008C1004D08083C890A48
:10499000CA2CC136890BC92C4108C2000830A700B7
:1049A0000030A8003908AA003808A900A9318F21D1
:1049B000A4312708C3002808C4000730C335C40D3C
:1049C000890BDE2C5108C500C6017030C7002430A9
:1049D000C80045084707C9004608483DCA004308C3
:1049E0004907CB0044084A3DCC0036084B078600F7
:1049F00037084C3D8700420881043A08BB00BC01DF
:104A00003B08B0003C08B1000530B2000030B300F4
:104A100088310020A4310030BD009230BE00300843
:104A20003D07BF0031083E3DC00051083F078400EC
:104A300040080318400A85000008C1004D0A212DD6
:104A4000C135890B202D4108C2000830A700003075
:104A5000A8003908AA003808A900A9318F21A4317B
:104A60002708C3002808C4000730C335C40D890BCC
:104A7000352D5108F03EC500C6012330C63D430820
:104A80004507C7004408463DC8003608470786006A
:104A90003708483D8700420881040130BB003B08CD
:104AA000D107A02CBE31A426A5312100B30160306E
:104AB0002000A7000030A80021006508A5006408B8
:104AC000A400A536A40CA536A40C3308373E8400F8
:104AD000BB300318013E8500000824072000A90010
:104AE000210025080318250A2000AA00B331552308
:104AF000A53127082100A6002608B1000130E407EF
:104B00000030E53D33083F3E8400BB300318013ED2
:104B100085000008A4002408AD001830A400240873
:104B20002000A900210033083F3E8400BB30031859
:104B3000013E85000008A9312021A5312100A500F2
:104B40002508AB00B2012B08A400A5013208A6007D
:104B5000A701A635A70DA635A70DA635A70D2408D4
:104B60002607AE002508273DAF002E08303EA400E2
:104B700000302F3DA5003108A600A7012508270217
:104B8000031DC42D2408260203181F2E3108A4007B
:104B9000A5012E08043EA60000302F3DA7002508E1
:104BA0002702031DD52D2408260203181F2E3308C3
:104BB000A400A50124082000B00021002508200041
:104BC000B1000330B2000030B30088310020A531BD
:104BD00096302100A600B830A70020003008210040
:104BE0002607A800200031082100273DA90032082F
:104BF0002807840029080318290A85000008AA004C
:104C00002A08AC002D08A400A50124082000B60045
:104C1000210025082000B70021002E08103E2000AA
:104C2000B800003021002F3D2000B90021002C08E1
:104C3000A60026082000BA00A4311924A5310130AD
:104C40002100A4002408B20703303202031CA32D64
:104C5000303031020318542E2D08A400A501240879
:104C60002000B600210025082000B70021003108EF
:104C7000103E2000B800003003180130B900603049
:104C80002100A60026082000A900B3310023A53189
:104C9000A9312021A531203E2100A70027082000AE
:104CA000BA00A4311924A53101302100A400240840
:104CB000B30708303302031C572DB0013008A4009D
:104CC000A5010030A6002430A7002408260786008E
:104CD0002508273D870081010130A4002408B00782
:104CE00080303002031C5E2E56302000DE00BB30C8
:104CF000DF00B6312F26A531B431C724A5312B08EA
:104D00002100A40020002C082100A5000630A536B3
:104D1000A40C890B872E033024062504031DA02E26
:104D200013302000D2000030D3000830D40000300F
:104D3000D5005030D600BA30D700B631A226A53102
:104D40000530BF31A327A531BC31B42408002200AF
:104D500058082100A700220057082100A6002200C1
:104D600056082100A500220055082100A4002200B9
:104D700054082100AB00220053082100AA002200A1
:104D800052082100A900220051082100A800B431D6
:104D9000C724A6312B0E0F392100AF0020002C0EA6
:104DA000F0392100AF0420002C0E0F392100B00093
:104DB000B431F824A6312B0E0F392100B1002000A8
:104DC0002C0EF0392100B10420002C0E0F392100E7
:104DD000B2000A302000B6000030B70021003008D1
:104DE0002000B90021002F082000B800B5315D2552
:104DF000A63136082100A5020A302000A7000030A5
:104E0000A800210030082000AA0021002F0820005F
:104E1000A900B3315523A63127082100A60200308E
:104E200032021E30031931020318182F2030192FB7
:104E30003130AC000030AD002C082000E0006008EC
:104E40002100A8000A302000B6000030B700210081
:104E500032082000B900210031082000B800B53127
:104E60005D25A63137088500360884001F30840789
:104E7000BB30853D0008E00060082100A9000A3031
:104E80002000A7000030A800210032082000AA005E
:104E9000210031082000A900B3315523A63127088D
:104EA000E00060082100AA0727302F063004031D08
:104EB0006D2F373031063204031D6D2F0130200075
:104EC000E00060082100ED0711306D02031C6E2F19
:104ED0000930B231D622A6316E2FED01BE31A426A3
:104EE000A6317A30DE00BB30DF00B6312F26A63186
:104EF0003130D2000030D3000830D4000030D5006B
:104F00006330D600BB30D700B631A226A6310930B7
:104F1000BF31A327A6311E302000E0006008210029
:104F2000AE0030082000B10021002F082000B000A2
:104F300021002E082000E000E1016008B2006108B5
:104F4000B30021003108403E2000B40000302100B1
:104F5000323D2000B50088311B20A63101302000F1
:104F6000E00060082100AE0723302E02031C912FC1
:104F700030082000A80021002F082000A7001C30C6
:104F8000A9000030AA002530AB000030AC009B31F6
:104F90007F23A63121003108403E2000A7000030C9
:104FA0002100323D2000A8001C30A9000030AA00DA
:104FB0002530AB000030AC009B317F23A6310030A0
:104FC0002000D200D3002830D4000030D500A43017
:104FD000D6000030D700B631A226A6316E30D200FE
:104FE0000030D3002830D4000030D500A830D600DF
:104FF0000030D700B631A226A631BC31B424080057
:105000000034003400340034003400340034803480
:10501000403420341034103468348434043404347C
:1050200002340234023401340134013401340F34C7
:1050300001340134013401340134023402340234C5
:10504000043404348434683410341034203440344C
:105050008034003400340034003400340034003430
:1050600000340034E03410340C3412341134203461
:105070000034003400340034003400340034003490
:105080000034003400340034003400340034003480
:105090000034003400340034003400340034003470
:1050A0000034003400340034003400340034003460
:1050B0002034113412340C341034E0340034003411
:1050C000F8348734803480340034003400340034C1
:1050D0000034003400340034003400340034003430
:1050E0000034003400340034003400340034003420
:1050F0000034003400340034003400340034003410
:1051000000340034003400340034003400340034FF
:105110000034003400340034003400340734F834F0
:105120001F34E034003400340034003400340034E0
:1051300000340034003400340034003400340034CF
:1051400000340034003400340034003400340034BF
:1051500000340034003400340034003400340034AF
:10516000003400340034003400340034003400349F
:10517000003400340034003401340134E1341F348D
:10518000003400340734083430344834883404346C
:10519000003400340034003400340034003400346F
:1051A000003400340034003400340034003400345F
:1051B000003400340034003400340034003400344F
:1051C000003400340034003400340034003400343F
:1051D000043488344834303408340734003400341C
:1051E000003400340034003400340034003401341E
:1051F000023404340834083410342C34223420347B
:105200004034403440348034803480348034F0344E
:1052100080348034803480348034403440344034AE
:105220002034203421341634083408340434023451
:1052300001340034003400340034003400340034CD
:105240002000AC000830AA002A08AD00AE012C08EE
:10525000AA000730AA36890B2A292E352A04AB006A
:105260002B08AE000310AC0D29082E02031C3A29AE
:105270002908AE020130AD02031D27292E080800BF
:10528000A900AA01AA0A230043198C29BC30860070
:10529000013087002000290881002300C310431536
:1052A0004310C1308600013087000E308100F43099
:1052B000BA000130BB00C315EF30A0003B30A100A5
:1052C000AC01AD01EF30A2003B30A300AE01AF0155
:1052D000EF30A4003B30A500B001B101EF30A600D3
:1052E0003B30A700B201B301F130A8003B30A90068
:1052F000B401B50102302000A7003C30A800BC3149
:10530000AC24A931BC310B24A931BD314225A931CE
:10531000BC310E242000AA0120002A080800AD019B
:10532000A81F9929A709A809A70A0319A80AAD0166
:10533000AD0AAA1FA429A909AA09A90A0319AA0A38
:105340000130AB002B08AD06AE01AF0127082804E1
:105350000319D329AC01AC0AA81BB8290130A73521
:10536000A80D890BAF290130AB002B08AC07AC2985
:105370000130AE35AF0D890BB92928082A02031D6B
:10538000C32927082902031CCA292708A9022808BB
:10539000AA3B2E140130A836A70C890BCB2901306B
:1053A000AC02031DB8292D080319DB29AE09AF098A
:1053B000AE0A0319AF0A2F08A8002E08A70008009C
:1053C000F8007008710403190C2A7808F400F5013C
:1053D000F435F50DA030F6000130F70074087607BB
:1053E00086007508773D87007008C03F7108C13F8F
:1053F0007808F400F501F435F50DAC30F600013015
:10540000F7007408760786007508773D87007208F4
:10541000C03F7308C13F08007808F400F501F43577
:10542000F50DA030F6000130F7007408760786000D
:105430007508773D8700EF30C03F3B30C13F7808AB
:10544000F400F501F435F50DAC30F6000130F7004D
:105450007408760786007508773D87000030C03FE6
:10546000C13F0800AF002708280403195E2A2F084F
:10547000AB00AC01AB35AC0DA030AD000130AE00DF
:105480002B082D0786002C082E3D87002708C03FDB
:105490002808C13F2F08AB00AC01AB35AC0DAC30D8
:1054A000AD000130AE002B082D0786002C082E3DE4
:1054B00087002908C03F2A08C13F08002F08AB0019
:1054C000AC01AB35AC0DA030AD000130AE002B0807
:1054D0002D0786002C082E3D8700EF30C03F3B3063
:1054E000C13F2F08AB00AC01AB35AC0DAC30AD000B
:1054F0000130AE002B082D0786002C082E3D8700BA
:105500000030C03FC13F080001302000A700F0304C
:10551000A800BD319925AA312000A900AA012908B7
:10552000AA00A9010030A700F030A800BD319925DC
:10553000AA312000AC0029082C042100E60020003C
:105540002A082100E70002302000A700F030A80060
:10555000BD319925AA312000A90029082100EE00BB
:1055600040302200B5000130B6002000AD0121001E
:1055700067082000AA00210066082000A9002D0A63
:10558000C32AAA36A90C890BC12A291CCC2A0A30A5
:105590002200B5020030B63B01302000A9002908E6
:1055A000AD0710302D0203180800B72A22000E1391
:1055B0008E1315302000A700C630890BDD2AA70BFB
:1055C000DD2A0000003020008E1A0130A8002808D3
:1055D000031DEC2A0030080022000E138E17153030
:1055E0002000A700C630890BF32AA70BF32A00007E
:1055F000003020008E1A0130A80028080319EA2A7A
:1056000022000E178E1315302000A700C630890B1C
:10561000072BA70B072B0000003020008E1A01304B
:10562000A80028080319EA2A22000E178E17153041
:105630002000A700C630890B1B2BA70B1B2B0000DB
:10564000003020008E1A0130A8002808031DEA2A25
:10565000013008002000B700FF30B6000030B50070
:10566000FF30B4000030B3000430A7000430A800BD
:105670000030A9000030AA003708AB00AC01AD0132
:10568000AE011830AB35AC0DAD0DAE0D890B422B14
:105690003708AF00B001B101B2011030AF35B00D25
:1056A000B10DB20D890B4E2B2F08AB043008AC04A2
:1056B0003108AD043208AE042B08A7042C08A80456
:1056C0002D08A9042E08AA042708B3062808B40642
:1056D0002908B5062A08B6062200C101C10A200021
:1056E00036082200A300200035082200A200200076
:1056F00034082200A100200033082200A00021006D
:10570000E80108002000B701B801B3310023AB3134
:105710000F39AF00B0013808B2003708B100B10E40
:10572000B20EF030B20531080F39B204F030B105D5
:105730002F083107B3003008323DB4003308783EFB
:10574000B5000030343DB6003735203E86000230CB
:1057500087003508C03F3608C13F0630AF002F082C
:10576000A900B3310023AB31A9312021AB31B00006
:105770000230B035FF3E031DB92B3035103EB1006D
:105780003708403E86000230870031088100013032
:10579000B7070030B83D3808803AAF0080302F029C
:1057A000031DD42B10303702031C852B2100E2018E
:1057B000E301EC010800BC315B24AB31003A031D6E
:1057C000EB2B132CBC311C240800BC312024080016
:1057D000BC3128240800230033082000A100230046
:1057E00032082000A000A03086000130870046313A
:1057F000413F8A00403F0A00AB312000A200A301D4
:105800002308003A0319052CE82B2208013A031952
:10581000E82B033A0319E22B013A0319E52B073A67
:105820000319E82BE82B230043103E082000A300B7
:1058300023003D082000A2002300BD0A0319BE0A70
:10584000200022088400230885000008BC314C2475
:10585000AB3101302300BF020030C03B3F084004A1
:10586000031D342C0630080003300800CB013D082E
:10587000803A803C031D3E2C3C084B020318080074
:1058800008302000A7000030A8004B083807A90006
:1058900039080318390AAA00A9318F21AC31270829
:1058A000C0002808C1000730C035C10D890B542C39
:1058B000F030C2002330C30040084207C400410852
:1058C000433DC50036084407C6003708453DC700BC
:1058D0004B08C0000330C036890B6B2C4008C10058
:1058E000C2014108B0004208B1003B08B3003A08C9
:1058F000B20088310020AC3130083E07C3003108C7
:105900003F3DC4004308C8004408C900CA013B0821
:10591000803A803C031D8E2C3A084A020318AA2CB8
:10592000200048088400490885000008C000460897
:10593000860047088700400881000130C807003012
:10594000C93D0130C6070030C73D0130C0004008E6
:10595000CA07872C08302000C0004008CB07372C2E
:10596000B431C724AC312B08E0002C08E100E1364B
:10597000E00CE136E00CE136E00C60082100B300F9
:10598000200061082100B40046302000B60000303D
:10599000B700B431F824AC312C08B1002B08B000AA
:1059A0000330B2000030B30088310020AC31310840
:1059B000B9003008B800B5315D25AC312F30E000BA
:1059C000360860022100B500200037090318890A53
:1059D0002100B60034082000CE002100330820004A
:1059E000CD0021003508103E2000CF0000302100FE
:1059F000363D2000D000220037082000E000E10101
:105A00006008D1006108D20022003808103E200052
:105A1000D300003003180130D4009C31EE24AC31A7
:105A20002200480803191B2D0030B231D622AC31B8
:105A3000B631E226AC31210033082000E0006008D6
:105A40002200B700210035082000E0006008220095
:105A5000B800BC31B4240800BD01B61F3C2DB30909
:105A6000B409B509B609B30A0319B40A0319B50A8A
:105A70000319B60ABD01BD0ABA1F4D2DB709B809F1
:105A8000B909BA09B70A0319B80A0319B90A0319F7
:105A9000BA0A0130BB003B08BD060030C10000302F
:105AA000C0000030BF000030BE00360835043404AA
:105AB00033040319962DBC01BC0AB61B6B2D0130B3
:105AC000B335B40DB50DB60D890B602D0130BB009B
:105AD0003B08BC075D2D0130BE35BF0DC00DC10DAB
